:020000040800F2
:1000000020590020290B00080D0400080F040008E7
:100010001104000813040008150400080000000083
:100020000000000000000000000000004501000882
:100030001704000800000000890100087D0800087E
:10004000430B0008430B0008430B0008430B000858
:10005000430B0008430B0008430B0008430B000848
:10006000430B0008430B0008430B0008430B000838
:10007000430B0008430B0008430B0008430B000828
:10008000430B0008430B0008430B0008430B000818
:10009000430B0008430B0008430B0008430B000808
:1000A000430B0008430B0008430B0008430B0008F8
:1000B000430B0008430B0008430B0008430B0008E8
:1000C000430B0008430B0008430B0008430B0008D8
:1000D000430B0008BF0A0008430B0008430B00084D
:1000E000430B0008430B0008430B0008430B0008B8
:1000F000430B0008430B0008430B0008430B0008A8
:10010000430B0008430B0008430B0008430B000897
:10011000430B0008430B0008430B0008430B000887
:10012000430B0008430B0008430B0008430B000877
:10013000DFF80CD005F00CF8004800473903000840
:1001400020590020224B19680868B0E8F00F80F3AE
:100150000988BFF36F8F4FF0000080F311884EF0D5
:100160000D0E70470000000006480068006880F32C
:10017000088862B661B6BFF34F8FBFF36F8F00DFA1
:1001800000BF00BF08ED00E0EFF30980BFF36F8F01
:100190000F4B1A6820E9F00F106008B54FF05000BF
:1001A00080F31188BFF34F8FBFF36F8F03F0C4F953
:1001B0004FF0000080F31188BDE808401968086816
:1001C000B0E8F00F80F30988BFF36F8F704700BF6E
:1001D0004C000020EFF305807047000003F011FB96
:1001E000DFF8B0916FF00B0ADFF8AC81DFF8ACB14B
:1001F00003F007FB4C46B9F8000004F059FD5646E1
:10020000514604F049FD414604F014FD0746CBF881
:1002100000005D46608804F04BFD314604F03CFD73
:10022000414604F007FD68605D4D294604F002FD7B
:1002300004F043FD86B284B22946384604F0FAFC45
:1002400004F03BFD81B233462246564800F058FA8E
:10025000CEE703F0D6FAFCE708B503F0D2FA4FF484
:10026000FA656E10504CDFF844910C27DFF82C81B2
:10027000009003F0C6FA00902088401C208020885F
:10028000A84201D9258003E02088B04200D2268010
:100290002188484602F091F800F0D0F9B0FBF7F061
:1002A00004F006FDC8F808003221684603F01EF885
:1002B000DFE708B503F0A5FA3D4C009003F0A1FA82
:1002C0000090D4F88801C043C4F8880164216846CE
:1002D00003F00CF8F2E77CB504F0E2FA0025022402
:1002E0002B46E20133A1AFF23500CDE9004502F023
:1002F00095FE00236602324631A1AFF2A300CDE99C
:10030000004502F08BFE0023324631A1AFF2BD0062
:10031000CDE9004502F082FE002332462FA1AFF264
:100320004310CDE9004502F079FE002002F0A1FE65
:10033000BDE87C4004F0CEBA1CB54FF4407000F02C
:1003400005FC294800F04EFE2748284900688842ED
:1003500003D027A004F09CFFFBE700F099FA4FF4CC
:10036000E13000F001FB00F003F900F07DF900F04E
:1003700019F900F068FA002101200B46CDE90001CF
:100380004FF402721EA1AFF2B10002F047FE03F07B
:10039000EBF9FEE722000020333353400000002039
:1003A0000000C84200380140200000200004004046
:1003B000008022424C45445F5461736B0000000092
:1003C000436F6E74726F6C5F5461736B000000005A
:1003D00055534152545F5461736B00004144435F75
:1003E0005461736B00000000C000002000A24A04AA
:1003F000737973636C6B206973206572726F72001E
:1004000053746172745F5461736B00007047FEE750
:10041000FEE7FEE7FEE770470CB500224C4800926D
:100420000192016841F4803101604FF4A0630168DA
:1004300001F4003101910099491C0091019911B911
:1004400000999942F3D10168890333D501210191C3
:1004500040490A6842F010020A600A6822F003026A
:100460000A600A6842F002020A604168416041681D
:100470004160416841F480614160416821F47C1130
:100480004160416841F4E8114160016841F08071C8
:10049000016001688901FCD5416821F003014160D8
:1004A000416841F0020141604168C1F381010229C4
:1004B000FAD10CBD01920CBD254810B5016841F080
:1004C000010101604168244A114041600168234AEA
:1004D00011400160016821F480210160416821F42C
:1004E000FE0141604FF41F018160FFF795FF1C4939
:1004F0004FF00060086010BD154A10B55068194BE8
:1005000010F00C01184803D0042901D0082901D0AB
:10051000036012E05168536801F470114FF0020457
:1005200013F4803F04EB914102D053689B0301D543
:100530000E4B00E00B4B5943016051680A4AC1F36E
:100540000311121D515C0268CA40026010BD000018
:1005500000100240002002400000FFF8FFFFF6FEFE
:1005600008ED00E000127A000C00002000093D00B8
:1005700038B50121242000F080FD0420ADF80000F2
:1005800010208DF803000320054C8DF80200694609
:10059000204600F08AFB0421204600F0F0FB38BD25
:1005A0000014014030B587B00121042000F065FD42
:1005B00048208DF81B004FF48070ADF81800032020
:1005C0008DF81A0006A9494800F06FFB0121C80206
:1005D00000F053FD00240F20ADF80800ADF80640F0
:1005E0000120434DADF80040ADF80400ADF80240E5
:1005F0006946284601F077FC284601F008FDADF871
:1006000012404FF6FF70ADF81000ADF80E404720D5
:10061000ADF80C008DF8144003A9284601F024FA27
:100620005021284601F0F8FC0421284601F0B1FED3
:100630000121284601F0C0FC07B030BD10B52C48A0
:1006400001F0CCFE2B49B1FBF0F010BD70B5284D88
:10065000284601F0C5FE642100FB01F4284601F0A4
:10066000BDFEB4FBF0F070BD30B587B001210420B1
:1006700000F003FD4020ADF8000018208DF80300C5
:1006800003208DF802006946184800F00EFB012196
:10069000022000F0FBFC44F61F60ADF81400472078
:1006A000ADF810000024144DADF81640ADF812401E
:1006B00004A9284601F0D8F96021ADF80010012006
:1006C000ADF802000D48ADF808400088ADF806000E
:1006D0006946284601F001FA0821284601F04AFD42
:1006E0000121284601F068FCA6E70000000801404F
:1006F000002C014040420F00000400402000002078
:100700002DE9F0411A4E0746AA203070F125757088
:100710000120B0704FF0040C86F803C03171080A54
:1007200070710023B271100AF07108251C46002078
:100730000CF1040C05E0315C1944CBB2E118CCB2E9
:10074000401C8445F7DC73556D1C745500246D1CEA
:100750000AE04021384600F039FE0028F9D0315D2A
:10076000384600F0D2FD641CAC42F2DBBDE8F081FB
:10077000D400002070B5012190B0084600F074FC50
:100780000121480200F079FC384E304600F0F0FFBD
:1007900037480090374801A90024022581E831003C
:1007A0008020CDE904404000069080000790202082
:1007B00008900002CDE909046946304601F045F889
:1007C0000121304601F06BF801208DF830008DF8E2
:1007D00031000B944FF46020CDE90D04244C8DF8CA
:1007E0003C504C3C0BA9204600F046FEA80300F00C
:1007F000D8FB052301220421204600F0BDFE05237D
:1008000002221946204600F0B7FE0121204600F0E2
:1008100065FE0121204600F057FE204600F071FEE3
:10082000204600F073FE0028FAD1204600F075FE45
:10083000204600F077FE0028FAD10121204600F082
:1008400078FE10B070BD08B50121042000F015FC41
:100850001820ADF8000000208DF803006946064816
:1008600000F023FABDE8084084E7000008000240D9
:100870004C240140220000200008014010B503F084
:10088000B7F9012803D0BDE8104004F034B810BD1A
:1008900010B5042000F09FF92B482C492C4A006821
:1008A000B0FBF1F3B0FBF1F14FF47A7041431370F8
:1008B000012050804FF0E020026942F00202026104
:1008C0004161016941F00101016110BD70B54FF056
:1008D000E02500216C691E4AAB6912785043AA6971
:1008E0009A42FCD002D2A3EB020302E0A4EB020680
:1008F0003344194413468142F1D370BD70B50446A8
:1009000003F076F901280CD0114D6888844203D396
:10091000B4FBF0F002F044FD6888B4FBF0F100FB9A
:1009200011444FF47A706043BDE87040CEE770B573
:10093000054600244FF47A7603E03046FFF7C6FF01
:10094000641CAC42F9D370BD0C00002040420F0083
:1009500026000020704770490A885206FCD56E4A6E
:10096000C1B2121D1180704770B5054686B00121D5
:1009700044F2040000F081FB4FF40070ADF8100069
:1009800003248DF812401820644E8DF8130004A93A
:10099000304600F08AF93015ADF8100004208DF8CB
:1009A000130004A9304600F080F925208DF81400CA
:1009B0008DF815408DF8164001208DF8170005A818
:1009C00000F0C9F80020ADF80400ADF80600ADF85D
:1009D0000800ADF80C000C204F4CADF80A00009553
:1009E0006946204600F0C8FB012240F2255120460E
:1009F00000F03FFC0121204600F031FC06B070BD44
:100A000010B5454C0146204600F07FFC8021204671
:100A100000F0DCFC0028F9D010BD70B50D4606468C
:100A2000002404E0305DFFF7EBFF641CA4B2AC428D
:100A3000F8D370BD70B50546002403E0FFF7E0FF72
:100A4000641CE4B2285D0028F8D170BD0346012083
:100A500000E05843491EFCD270472DE9F0410024C4
:100A60000E4607460A250FE0311B0A20491EFFF7F4
:100A7000EDFFB7FBF0F0B0FBF5F105FB11003030F6
:100A8000FFF7BEFF641CE4B2B442EDD3BDE8F081D1
:100A900010B5FF20FFF7B4FF04212148FFF7BDFF89
:100AA000BDE81040FE20ABE71D48001F017801297A
:100AB00001D000207047002101700120704770B5FF
:100AC000154C40F22551204600F08AFC00280FD03A
:100AD000204600F01EFC124AC1B2121F50880304C7
:100AE00006D444044FF0000306D50A2901D05380F0
:100AF00070BD40F400400DE00D2909D0C0F30D0495
:100B0000084D401C80B229555080C728EFD870BDD1
:100B100040F48040508070BD003801400008014022
:100B20002E000020060100200648804706480047A6
:100B3000FEE7FEE7FEE7FEE7FEE7FEE7FEE7FEE78D
:100B4000FEE7FEE7B9040008310100082849084320
:100B500028490860704730B50F23C2780178012515
:100B6000F2B1244A126801F1E02102F4E062C2F518
:100B7000E062120AC2F10404D3404278A2408478B1
:100B80001C401443220181F80024007800F01F016A
:100B90008D404009800000F1E020C0F8005130BDD8
:100BA00001F01F0085404809800000F1E020C0F8F6
:100BB000805130BD104A114001430E48001F0160B2
:100BC00070470C4A121D0029116801D0014300E052
:100BD0008143116070474FF0E0210428086903D079
:100BE00020F004000861704740F00400FAE70000BC
:100BF0000000FA050CED00E080FFFF1F8F4910B5E3
:100C0000884206D10121042000F049FA0021042085
:100C10003BE08B49884206D10121082000F03FFAD1
:100C20000021082031E08749884206D101211020A7
:100C300000F035FA0021102027E08349884206D1D0
:100C40000121202000F02BFA002120201DE07F4907
:100C5000884206D10121402000F021FA00214020E5
:100C600013E07B49884206D10121802000F017FA69
:100C70000021802009E0774988420AD184150121AA
:100C8000204600F00CFA00212046BDE8104000F09C
:100C900006BA10BD10B50121084600F000FA002187
:100CA000BDE81040012000F0FAB9F0B5CC78002280
:100CB00004F00F03E40601D58C7823430C784FF041
:100CC0000F0C14F0FF0F4FF0010E1BD005680E88BB
:100CD0000EFA02F42640A64210D196000CFA06F74E
:100CE00025EA070703FA06F5CE783D43282E02D001
:100CF000482E02D002E0446100E00461521C082A40
:100D0000E5D305600A88FF2A1CD94468002202F155
:100D100008060EFA06F50E882E40AE420ED1960059
:100D20000CFA06F7BC4303FA06F7CE783C43282EAC
:100D300000D14561CE78482E00D10561521C082AA9
:100D4000E5D34460F0BD4FF6FF7101800221817050
:100D50000421C17070470246002092680A4200D008
:100D600001207047806880B2704702460020D26838
:100D70000A4200D001207047C06880B2704701610C
:100D80007047416170470AB1016170474161704726
:100D9000C160704741F48032826181618261816902
:100DA000806970472C4B10B51A684FF6807422404A
:100DB00042EA00100843186010BD2849C861704716
:100DC000F0B5254C002801DAE36900E06368450DC1
:100DD0002E0185B2C0F30157B540C0F30342032F83
:100DE00005D0C6020AD503269640B34307E023F098
:100DF0007062636823F07063636002E0AB4343F0AA
:100E0000706201B12A43002801DAE261F0BD62603C
:100E1000F0BD10B58A0721F003040F49120F2144D9
:100E20000F238C6893409C438C608B6890400343F5
:100E30008B6010BD0949C1F8DC0070470008014013
:100E4000000C014000100140001401400018014056
:100E5000001C014000200140000001400000204231
:100E6000A548016841F0010101604168A34A1140B1
:100E700041600168A24A11400160016821F48021AB
:100E80000160416821F4FE0141604FF41F0181605F
:100E9000704799490A6822F480320A600A6822F48D
:100EA00080220A60B0F5803F07D0B0F5802F03D1D3
:100EB000086840F4A02008607047086840F480305B
:100EC000F9E70346002059098B4A01290AD0022973
:100ED0000AD0516A03F01F02012393400B4200D055
:100EE000012070471168F5E7116AF3E718B5002093
:100EF0004FF4A06400903120FFF7E3FF0099491CF4
:100F00000091A14201D00028F5D03120FFF7D9FF90
:100F1000002800D0012018BD774A116821F0F8019F
:100F200041EAC00010607047764908607047724B14
:100F30005A68084322F47C12104358607047714984
:100F4000086670476C4A516821F003010143516003
:100F500070476948406800F00C007047664A516865
:100F600021F0F001014351607047634A516821F458
:100F7000E0610143516070475F4A516821F460515C
:100F800041EAC000506070475B4A0029517A01D0A5
:100F9000014300E08143517270475A49C1F8D800BB
:100FA0007047554A516821F44041014351607047F0
:100FB0005149002281F8202081F82020012802D008
:100FC000042802D1052081F8200070474E490860AE
:100FD000704749490A6A02430A6270474A494439DC
:100FE0000860704730B5444A5168484B11F00C0115
:100FF00003D0042901D0082901D0036012E0516810
:10100000536801F470114FF0020413F4803F04EBB5
:10101000914102D053689B0301D53D4B00E03B4B0F
:101020005943016051680F2303EA1111394B5C5C8D
:101030000168E14041605468072505EA14241C5DFD
:1010400021FA04F48460546805EAD4241B5DD94075
:10105000C1605268032303EA92322E4B1B1F9A5C35
:10106000B1FBF2F1016130BD234A0029516901D081
:10107000014300E08143516170471F4A0029916993
:1010800001D0014300E08143916170471A4A002971
:10109000D16901D0014300E08143D1617047164A14
:1010A0000029D16801D0014300E08143D16070473D
:1010B000114A0029116901D0014300E08143116107
:1010C000704711494039086070470E49C86470473D
:1010D0000949C87170470848416A41F0807141620E
:1010E0007047054A0146002092680A4200D001205C
:1010F0007047014988727047001002400000FFF8F5
:10110000FFFFF6FE000042428004424200127A00D5
:1011100000093D003C000020C44910B588420AD1B6
:1011200001218C032046FFF7BAFF2046BDE810409E
:101130000021FFF7B4BFBE49884202D101214C040F
:1011400010E0BC49884202D101218C040AE0BA496E
:10115000884202D10121CC0404E0B84988420AD176
:1011600001210C052046FFF7A3FF2046BDE81040F3
:101170000021FFF79DBF10BD30B50446008A85B041
:101180000D464CF6FF710840E98801432182A08991
:101190004EF6F3110840A9882A8911436A8902434F
:1011A0001143A181A08A4FF6FF410840A98901435C
:1011B000A1826846FFF716FF9C48844201D103983C
:1011C00000E00298A189090400EBC00101EB0010C6
:1011D000296801D5490000E08900B0FBF1F06422E4
:1011E000B0FBF2F109010B096FF018056B4300EB3E
:1011F0008300A3891D044FF0320306D503EBC00022
:10120000B0FBF2F000F0070005E003EB0010B0FBCC
:10121000F2F000F00F000843208105B030BD4FF41C
:101220001651016000218180C18001810C22428120
:101230008181704710B5028A4FF2FF031A400B8874
:101240004C8823438C88C9880C432343134303826F
:1012500010BD0021018041808180C180704700293C
:10126000818902D041F4005101E021F400518181D3
:10127000704710B5C1F3421301F01F040121A140D2
:10128000012B07D0022B07D01430002A026805D0AA
:101290000A4304E00C30F8E71030F6E78A430260B6
:1012A00010BD002A828A01D00A4300E08A4382826C
:1012B0007047028A22F00F020282028A0A430282E7
:1012C0007047828922F40062828182890A43828186
:1012D00070470029818902D041F0020101E021F02C
:1012E000020181817047028A22F020020282028A72
:1012F0000A43028270470029018A02D041F48041EA
:1013000001E021F4804101827047C1F3080181802E
:1013100070478088C0F308007047818941F001015F
:1013200081817047028BD2B20283028B42EA012193
:1013300001837047028B02F47F420283028B0A43CF
:10134000028370470029818A02D041F0200101E028
:1013500021F02001818270470029818A02D041F06A
:10136000100101E021F01001818270470029818A7B
:1013700002D041F0080101E021F0080181827047AC
:101380000029818902D041F4004101E0C1F30E013E
:10139000818170470029818A02D041F4006101E017
:1013A00021F4006181827047828A22F004028282E5
:1013B000828A0A43828270470029818A02D041F0E2
:1013C000020101E021F00201818270470246002003
:1013D00012880A4200D001207047C943018070473B
:1013E00070B501F01F0501260024C1F3421306FA6F
:1013F00005F2012B0FD0022B0FD0838A4FEA112167
:101400000088134206FA01F600EA060001D000B196
:101410000124204670BD8389F0E7038AEEE70A0ABB
:1014200001219140C943018070470000003801400C
:101430000044004000480040004C00400050004084
:10144000C54910B5884202D1012144150AE0C349BB
:10145000884202D10121041504E0C14988420AD121
:101460000121CC032046FFF71AFE2046BDE81040BC
:101470000021FFF714BE10BD10B54268B94B0C79BE
:101480001A400B6842EA0422134343608268B64B59
:101490001A40D1E9024323434C7942EA4402134300
:1014A0008360C26A097C22F47002491EC9B242EA12
:1014B0000151C16210BD0021016001714171816063
:1014C000C1600121017470470029816802D041F098
:1014D000010101E021F0010181607047002981686C
:1014E00002D041F4807101E021F480718160704785
:1014F000002A4268C9B201D00A4300E08A43426030
:101500007047816841F00801816070470146002002
:101510008968090700D501207047816841F00401FE
:1015200081607047014600208968490700D5012085
:1015300070470029816802D041F4A00101E021F444
:10154000A00181607047014600208968490200D5EA
:10155000012070474268491E22F4604242EA41314C
:10156000416070470029416802D041F4006101E008
:1015700021F400614160704770B5072609290AD936
:10158000C568A1F10A0404EB4404A640B543A34096
:101590001D43C56007E0056901EB4104A640B54362
:1015A000A3401D4305611F23072A09D2446B521E25
:1015B00002EB820293409C4391400C43446370BD14
:1015C0000D2A09D2046BD21F02EB820293409C4386
:1015D00091400C43046370BDC46A0D3A02EB820271
:1015E00093409C4391400C43C46270BD00298168C4
:1015F00002D041F4801101E021F480118160704734
:10160000C06C80B2704754484C3000687047002965
:10161000416802D041F4806101E021F480614160C1
:1016200070470029416802D041F4805101E021F463
:10163000805141607047826822F4E0420A43826030
:1016400070470029816802D041F4004101E021F493
:101650000041816070470029816802D041F4021185
:1016600001E021F402118160704701460020896881
:10167000890200D50120704770B5072609290AD9CB
:10168000C568A1F10A0404EB4404A640B543A34095
:101690001D43C56007E0056901EB4104A640B54361
:1016A000A3401D430561836BC3F30154121B921CBD
:1016B00002EB82021F249440A34391400B438363B7
:1016C00070BD826B491E22F4401242EA01518163CF
:1016D000704708B508440090026008BD08B508448A
:1016E00028300090006880B208BD42681F4B1A4045
:1016F0000A4342607047416282627047426822F04A
:101700001F020A43426070471349083100280868E5
:1017100002D040F4000001E020F4000008607047AF
:101720000246002012680A4200D001207047C943D7
:101730000160704710B50246002054680B0AC9B218
:101740000C401168194202D0002C00D0012010BDBD
:101750006FEA112101607047002401400028014018
:10176000003C0140FFFEF0FFFDF7F1FFFFFD3FFFF2
:1017700001684FF6FE721140016000210160416076
:101780008160C1606A496A4A0839904203D1486859
:1017900040F00F0006E0664A1432904204D14868D7
:1017A00040F0F00048607047614A2832904203D10F
:1017B000486840F47060F5E75D4A3C32904203D1DE
:1017C000486840F47040EDE7594A5032904203D1E6
:1017D000486840F47020E5E7554A6432904203D1EE
:1017E000486840F47000DDE7514A7832904203D1F6
:1017F000486840F07060D5E74E4A111F904203D10F
:10180000086840F00F0006E04A4A1432904204D1C2
:10181000086840F0F00008607047464A283290425D
:1018200003D1086840F47060F5E7424A3C329042C8
:1018300003D1086840F47040EDE73E4A50329042D0
:10184000EAD1086840F47020E5E730B5026847F651
:10185000F0739A430C6A8B682343D1E904452C4307
:1018600023438C692343CC6923434C6A23438C6A0A
:10187000234313430360CA6842600A688260496870
:10188000C16030BD0021016041608160C1600161C3
:1018900041618161C16101624162816270470029D9
:1018A000016802D041F0010102E04FF6FE721140E2
:1018B00001607047002A026801D00A4300E08A43B1
:1018C0000260704741607047406880B270470246CE
:1018D0000020D10002D51749083901E01449083920
:1018E0000968114200D001207047C10003D5114999
:1018F000091F086070470E49083948607047024662
:101900000020D10002D50B49083901E00849083907
:101910000968114200D001207047C10003D5054974
:10192000091F086070470249083948607047000085
:101930000800024008040240F94910B5884202D16B
:101940000121C41486E0B0F1804F09D0F5498842E6
:101950000DD101210220FFF7ABFB0021022064E042
:1019600001210846FFF7A4FB002101205DE0EE49BC
:10197000884206D101210420FFF79AFB00210420B0
:1019800053E0EA49884206D101210820FFF790FB85
:101990000021082049E0E649884206D101211020B3
:1019A000FFF786FB002110203FE0E249884206D184
:1019B00001212020FFF77CFB0021202035E0DE49BB
:1019C000884202D10121441444E0DC49884202D11A
:1019D0000121CC043EE0DA49884202D101210C0504
:1019E00038E0D849884202D101214C0532E0D6497D
:1019F000884206D101214020FFF75AFB00214020F8
:101A000013E0D249884206D101218020FFF750FB24
:101A10000021802009E0CE4988420AD184150121A5
:101A20002046FFF745FB00212046BDE81040FFF7A8
:101A30003FBBC849884202D101210C040AE0C649D3
:101A4000884202D101214C0404E0C44988420AD1F1
:101A500001218C042046FFF722FB2046BDE8104000
:101A60000021FFF71CBB10BD30B50288AC4CB24D55
:101A7000A0420DD0A8420BD0B0F1804F08D0A94BA6
:101A8000984205D0A84B984202D0A84B984203D167
:101A900022F070034A881A43A54B984206D0A54B02
:101AA000984203D022F44073CA881A4302808A887D
:101AB00082850A880285A0420AD0A84208D0A54A99
:101AC000904205D0A44A904202D0A44A904201D14B
:101AD000097A01860121818230BD30B5028C22F065
:101AE00001020284028C8388048B22F0020224F01B
:101AF00073050C882C430D8915434A882A43884D69
:101B0000A8420BD08C4DA84208D0924DA84205D0D7
:101B1000914DA84202D0914DA8420DD122F0080566
:101B20004A8923F440732A4322F004058A882A4311
:101B30008D891D43CB892B4383800483C98881868B
:101B4000028430BD70B5028C22F010020284028C37
:101B50008388048B0D8824F4E6464FF6FF7404EA6C
:101B6000052535430E8922F0200204EA06161643A5
:101B70004A8804EA02123243694EB04202D06E4EE5
:101B8000B04215D122F080064A8923F4406304EA6A
:101B90000212324322F040068A8804EA02123243DB
:101BA0008E8904EA86061E43CB8904EA8303334305
:101BB00083800583C9880187028470BD70B5028C5B
:101BC00022F480720284028C8388848B0D8824F036
:101BD000730425430E894FF6FF7422F4007204EA61
:101BE000062616434A8804EA022232434C4EB0428B
:101BF00002D0514EB04215D122F400664A8923F436
:101C0000405304EA0222324322F480668A8804EABE
:101C1000022232438E8904EA06161E43CB8904EA67
:101C20000313334383808583C9888187028470BD11
:101C300070B5028C22F480520284058C8288838BDA
:101C40000C8823F4E6464FF6FF7303EA042434437A
:101C500025F400560D8903EA053535434E8803EA1D
:101C600006362E432E4DA84202D0334DA84205D150
:101C700022F480458A8903EA82122A43828084837F
:101C8000C988A0F84010068470BD828B22F440629F
:101C90008283828B4FF6FF7303EA01210A4382831A
:101CA0007047828B22F00C028283828B0A438283EC
:101CB0007047028B22F440620283028B4FF6FF735F
:101CC00003EA01210A4302837047F0B5048C24F033
:101CD00010040484078B048C4FF6FF7527F47347B8
:101CE00005EA03333B4305EA02221A430C4B05EA9B
:101CF000011698420ED0104B98420BD0B0F1804F95
:101D000008D0084B984205D0074B984202D0074BA9
:101D1000984225D124F02001314341F0100124E004
:101D2000002C01400004004000080040000C00406E
:101D3000001000400014004000340140004C0140FD
:101D4000005001400054014000180040001C0040B9
:101D50000020004000400140004401400048014094
:101D600024F0A0030B4343F0100102830184F0BD73
:101D7000028B22F00C020283028B0A43028370471B
:101D800070B5048C24F001040484058B048C4FF698
:101D9000FF7606EA0313134325F0F305F84A2B43B5
:101DA00090420ED0F74A90420BD0B0F1804F08D04D
:101DB000F54A904205D0F54A904202D0F44A90424A
:101DC00002D124F0020201E024F00A020A4342F0A8
:101DD00001010383018470BD2DE9F84F0D460446CF
:101DE0000888E74FDFF89CC3DFF89C83DFF89C93FB
:101DF0004988AA882B894FF0804A48B304282FD0FD
:101E00004FF6FF760828934632D0208C9E4620F469
:101E100080502084A38B208C06EA0132009223F4A8
:101E2000734306EA0B221A4306EA0E331343BC42FD
:101E30000AD0644508D0544506D0444504D04C45EA
:101E400002D0D34A944242D120F40050009940E09D
:101E50002046FFF795FFE9882046BDE8F84F87E761
:101E60002046FFF732FFE9882046BDE8F84F20E71B
:101E7000208C20F480702084B4F81CE0208C06EACA
:101E8000031306EA01222EF0F30E43EA0B0343EAA2
:101E90000E030092BC420AD0644508D0544506D0D7
:101EA000444504D04C4502D0B94A944203D120F4B1
:101EB0000070009901E020F42060084340F4807035
:101EC000A3832084E9882046BDE8F84FE9E620F4A2
:101ED0000240084340F48050A3832084E9882046D0
:101EE000BDE8F84FD1E62DE9F0410C4600264988BF
:101EF0000746012501B90226A288012A00D1022540
:101F0000208823890028384610D0FFF7DEFEE188BC
:101F10003846FFF7CEFE23892A4631463846FFF77A
:101F20002FFFE1883846BDE8F04121E7FFF728FFA1
:101F3000E1883846FFF71CFF23892A463146384698
:101F4000FFF7C3FEE1883846BDE8F041B1E610B5C1
:101F50000A884B88CC881A438B8823431A430B8901
:101F60001A434B8989891A430A43A0F8442010BDBB
:101F70004FF6FF71818000210180C1804180017294
:101F800070470021018041808180C18001814181B1
:101F90008181C181704700210180418001228280BE
:101FA000C180018170470021018041808180C18012
:101FB00001814181818170470029018802D041F06F
:101FC000010101E021F0010101807047002930F892
:101FD000441F02D041F4004101E0C1F30E01018031
:101FE0007047002A828901D00A4300E08A43828137
:101FF0007047818270471143A0F848107047002A4B
:10200000828901D00A4300E08A43828170470189B6
:1020100021F0070101817047028922F070020A4312
:102020000281704700B50346FFF7F6FF188940F0BC
:102030000700188100BD70B516460D46602904469C
:102040004FF0010231460AD0FFF79AFE294620469A
:10205000FFF7E2FF208940F00700208170BDFFF705
:1020600034FEF3E730B504894FF6FF7505EA032324
:102070001343E4B20B432343038130BD10B5044640
:10208000FFF7F0FF208940F07700208110BD10B5E8
:102090000446FFF7E7FF208940F48040208110BD0F
:1020A000018582827047028822F070020A43028012
:1020B000704770B50589048B068C25F007050D4324
:1020C0004FF6FC410C4040F201110C434FF6FF71FA
:1020D00001EA031126F022061143314305810483EE
:1020E000018470BD028B22F070020A4302837047A4
:1020F000028B4FF6FF7322F4E04203EA0121114301
:1021000001837047828B22F070020A4382837047FA
:10211000828B4FF6FF7322F4E04203EA0121114360
:10212000818370470029018802D041F0800101E0DD
:1021300021F08001018070470029818802D041F0A0
:10214000040101E021F004018180704700298188A9
:1021500002D041F0080101E021F0080181807047C0
:102160000029818802D041F0010101E021F0010144
:1021700081807047028B22F008020A430283704775
:10218000002C0140003401400004004000080040E1
:10219000000C0040028B4FF6FF7322F4006203EA4A
:1021A000012111430183EAE7828B22F008020A43EE
:1021B0008283E4E7828B4FF6FF7322F4006203EA26
:1021C000012111438183DAE7028B22F004020A43E2
:1021D0000283D4E7028B4FF6FF7322F4806203EA96
:1021E000012111430183CAE7828B22F004020A43D2
:1021F0008283C4E7828B4FF6FF7322F4806203EA86
:10220000012111438183BAE7028B22F080020A4345
:102210000283B4E7028B4FF6FF73C2F30E0203EAA8
:10222000012111430183AAE7828B22F080020A4335
:102230008283A4E7828B4FF6FF73C2F30E0203EA98
:102240000121114381839AE7028C22F002020A43A2
:10225000028494E7028C22F008020A4302848EE78B
:10226000028C4FF6FF7322F0200203EA01111143A2
:10227000018484E7028C4FF6FF7322F0800203EAA8
:102280000111114301847AE7028C4FF6FF7322F4A7
:10229000007203EA01211143018470E7028C4FF6BA
:1022A000FF7322F4006203EA01211143018466E70F
:1022B000028C4FF6FF7322F4005203EA01311143FE
:1022C00001845CE710B50123048C8B409C4304849B
:1022D000038C8A401343038410BD10B50423048C7F
:1022E0008B409C430484038C8A401343038410BDB9
:1022F00030B50124058C00F118038C40A5430584FA
:1023000089B108290FD0091FC1F34E001844016894
:1023100021F4E041016001684FF6FF7303EA0222F5
:102320001143016030BD03EB5100016821F07001E1
:1023300001600168F4E70029018802D041F0020140
:1023400001E021F00201018019E70029018802D093
:1023500041F0040101E021F0040101800FE70029B0
:10236000818802D041F0800101E021F0800181806C
:1023700005E7028822F00802028002880A430280F0
:10238000FDE6828822F07002828082880A43828081
:10239000F5E6028922F00702028102890A430281DE
:1023A000EDE6028922F08002028102890A4302815D
:1023B000E5E68184E3E68185E1E68186DFE6018763
:1023C000DDE68187DBE6A0F84010D8E6028822F43B
:1023D0004072028002880A430280D0E6808ECEE6F8
:1023E000008FCCE6808FCAE6B0F84000C7E6808C4C
:1023F000C5E6008DC3E602460020128A0A4200D0DC
:102400000120BCE6C9430182B9E602460020138AD6
:1024100092890B4202EA010202D0002A00D0012078
:10242000ADE6C9430182AAE600F108014FF0FF3290
:10243000C0E90112C1600161002101607047002103
:102440000161704742684A6093688B609368596085
:10245000916008610168491C0160704730B50C68E3
:10246000621C02D000F1080202E0026904E01A4690
:1024700053681D68A542FAD953684B6099608A6019
:10248000516008610168491C016030BDD0E901322A
:1024900001699A60D0E901235A604A68824201D1F9
:1024A00082684A60002202610868401E0860704726
:1024B00070B50D46040005D140F21B12F2A1F7A041
:1024C00002F0E6FE02F0ECF9D4E90F20216802FBED
:1024D000001161600021A1632168A1600A46D4E96E
:1024E0000F01401E00FB0121E16021464FF0FF304B
:1024F00001F8440F487004F110004DB1FFF794FF4C
:1025000004F12400FFF790FF02F0E4F9012070BD10
:1025100021690029F8D001F0A3FA0028F4D0E3499A
:102520004FF080500860BFF34F8FBFF36F8FEBE722
:102530002DE9F04117460E46050005D14FF4C4724F
:10254000D1A1D6A002F0A4FEBEB105FB06F0543026
:1025500002F056FA04000ED004F154007EB120605F
:10256000C4E90F5620460121FFF7A2FF84F85070FE
:1025700000212046A164BDE8F0810020E7E7246047
:10258000EEE72DE9F041856B174604460026026C04
:1025900082B1C7B1E06802F019FBE168206C091A4A
:1025A000E1602268914202D26168081AE060022F5D
:1025B00016D017E02068A8B9606801F062FB0646F3
:1025C000002060600EE0A06802F000FB216CA068B3
:1025D0000844A0606168884204D32068A06001E0DC
:1025E00005B16D1E6D1CA5633046C4E72DE9F341AE
:1025F0000F4600980026846C2CB940F6CE12A2A19A
:10260000A6A002F045FEA06BE16B884205D340F620
:10261000CF129DA1A1A002F03BFEA06BE16B88420E
:102620000CD294F945503A4669462046FFF7A9FF77
:102630000646681C05D06D1C84F845503046BDE840
:10264000FC81606A0028F9D004F1240001F008FA46
:102650000028F3D00126F1E72DE9F041044602F00D
:102660001FF994F9455004F1240610E0A06C20B144
:1026700000212046FFF7BAFF04E0606A48B1304607
:1026800001F0EEF908B101F0A4FA6D1E6DB2002D53
:10269000ECDC4FF0FF3684F8456002F01BF902F0E5
:1026A000FFF894F9445004F1100709E0206948B19B
:1026B000384601F0D5F908B101F08BFA6D1E6DB204
:1026C000002DF3DC84F84460BDE8F04102F002B96B
:1026D0002DE9FF4F83B099468B4604004FF000066A
:1026E00005D140F2D92268A16CA002F0D1FDBBF166
:1026F000000F07D1206C28B140F2DA2262A167A056
:1027000002F0C6FDB9F1020F08D1E06B012805D037
:1027100040F2DB225CA161A002F0BAFD01F068FA90
:1027200038B9059828B140F2DE2257A15BA002F02B
:10273000AFFD4FF0000A4FF08057DFF8708102F0D4
:10274000AFF8A06BE16B884206D3B9F1020F03D05A
:10275000059800B316B325E04A4659462046FFF7D0
:1027600010FFA16C21B149462046FFF73FFF05E06D
:10277000616A19B104F1240001F072F928B1C8F8B6
:102780000070BFF34F8FBFF36F8F02F0A3F80120EB
:1027900007B0BDE8F08F02F09DF821E0684601F037
:1027A000CEF9012602F096F800F09BFD02F078F8D1
:1027B00094F94400401C01D184F844A094F94500E8
:1027C000401C01D184F845A002F084F805A96846B0
:1027D00001F0C6F930B12046FFF73EFF00F0F3FCF0
:1027E0000020D5E702F05CF8A06BE16B884201D1D4
:1027F000012500E0002502F06DF895B104F110000C
:10280000059901F0D4F82046FFF726FF00F0DBFC25
:10281000002894D1C8F80070BFF34F8FBFF36F8FBB
:102820008DE72046FFF718FF00F0CDFC87E710B5D5
:10283000024600210120FFF77BFE041E07D0002185
:10284000416001600B460A46C160FFF741FF204628
:1028500010BD10B5040005D140F241220AA10FA01D
:1028600002F016FD01F0C1F96168884220D1E068EC
:10287000401EE06005D100231A4619462046FFF7A6
:1028800027FF012010BD00002E2E5C4672656552A8
:10289000544F535C71756575652E63004572726F98
:1028A000723A25732C25640D0A00000004ED00E047
:1028B0000020E7E730B4026C0B46002A0BD0C16859
:1028C0001144C1604468A14201D30168C16030BCB9
:1028D000184602F07BB930BC70472DE9FF4F83B03A
:1028E0009B468A4604004FF0000607D140F2DC42C6
:1028F000AFF26C01AFF25C0002F0CAFCBAF1000F5B
:1029000009D1206C38B140F2DD42AFF28401AFF260
:10291000740002F0BDFC01F06BF948B9059838B1BC
:102920004FF49C62AFF2A001AFF2900002F0B0FC55
:102930004FF000094FF08057DFF8188601F0B0FF24
:10294000A56B35B351462046E668FFF7B3FFBBF1F0
:10295000000F11D0E660606A50B104F1240001F06C
:102960007FF828B1C8F80070BFF34F8FBFF36F8FA7
:1029700001F0B0FF01200BE76D1EA563206810B9C0
:1029800001F02FFA606020690028F1D004F11000F6
:10299000E5E7059808B11EB106E001F09BFF27E0CE
:1029A000684601F0CCF8012601F094FF00F099FC94
:1029B00001F076FF94F94400401C01D184F8449062
:1029C00094F94500401C01D184F8459001F082FF44
:1029D00005A9684601F0C4F8002820460AD0FFF790
:1029E0003BFE00F0F0FB204600F0A6FA0028A5D040
:1029F0000020CDE600F0A0FAD8B1206830B901F08F
:102A00004FFF606801F0FFF801F064FF04F124005B
:102A1000059900F0CCFF2046FFF71EFE00F0D3FB27
:102A200000288BD1C8F80070BFF34F8FBFF36F8FB2
:102A300084E72046FFF710FE00F0C5FB7EE770B587
:102A40000D46040007D14FF41E72AFF2C411AFF26D
:102A5000B41002F01DFC01F0C8F86168884204D18E
:102A6000E068401CE060012070BD00232A46194642
:102A70002046FFF732FF0028F6D0E168491CE160EC
:102A800070BD70B50C46050007D140F2BD22AFF213
:102A90000821AFF2F81002F0FBFBAC4207D940F27C
:102AA000BE22AFF21C21AFF20C2002F0F1FB022299
:102AB00000212846FFF73CFD002800D0846370BD4C
:102AC0002DE9F047984615468946040007D140F2A3
:102AD0009F32AFF24C21AFF23C2002F0D9FBB9F1AA
:102AE000000F09D1206C38B14FF46872AFF2682141
:102AF000AFF2582002F0CCFBB8F1020F0AD1E06B24
:102B0000012807D040F2A132AFF28421AFF2742045
:102B100002F0BEFB01F003FF5020EFF3118780F3BA
:102B20001188BFF34F8FBFF36F8FA06BE16B8842AB
:102B300007D3B8F1020F04D0002087F31188BDE855
:102B4000F08794F94560424649462046FFF719FD53
:102B5000701C04D0761C84F845600120EDE7A06C61
:102B6000012620B141462046FFF740FD06E0606A9D
:102B70000028F2D004F1240000F072FF0028ECD00D
:102B8000002DEAD02E60E8E72DE9F0410D46040063
:102B900007D140F23C42AFF21031AFF2003002F008
:102BA00077FB206C38B14FF48862AFF22431AFF27A
:102BB000143002F06DFB206848B9606838B140F20B
:102BC0004542AFF23C31AFF22C3002F061FB01F034
:102BD000A6FE5020EFF3118680F31188BFF34F8FCC
:102BE000BFF36F8FA16BE06B88421FD994F945004A
:102BF000491CA163411C04D0401C84F845000120FD
:102C000015E0A06C012720B100212046FFF7EEFC63
:102C100006E0606A0028F2D004F1240000F020FFF2
:102C20000028ECD0002DEAD02F60E8E7002086F3E2
:102C30001188A0E42DE9F04790468946040007D1A9
:102C40004FF4B462AFF2C031AFF2B03002F020FB0B
:102C5000B9F1000F09D1206C38B140F2A152AFF2A6
:102C6000D831AFF2C83002F013FB01F058FE50200B
:102C7000EFF3118780F31188BFF34F8FBFF36F8F8E
:102C8000A66BF6B194F9445049462046FFF712FE70
:102C9000761EA663681C04D06D1C84F84450012085
:102CA00010E020690028FAD004F1100000F0D8FEEE
:102CB0000028F4D0B8F1000FF1D00121C8F80010BD
:102CC000EDE7002087F3118839E72DE9F0410E4642
:102CD000040007D140F2FC52AFF25441AFF244403D
:102CE00002F0D6FA4EB9206C48B140F2FD52AFF274
:102CF0006841AFF2584002F0CBFA206C38B940F28C
:102D0000FE52AFF27C41AFF26C4002F0C1FA01F02A
:102D100006FE5020EFF3118580F31188BFF34F8F2B
:102D2000BFF36F8FA06B30B131462046E768FFF7E5
:102D3000C1FD0120E76085F311881CE410B5040093
:102D400007D140F22F62AFF2C041AFF2B04002F0C3
:102D50009FFA01F0A5FDA46B01F0BCFD204691E5B2
:102D600010B5040007D140F24162AFF2E441AFF286
:102D7000D44002F08DFA01F093FDD4E90E10441A0C
:102D800001F0A8FD20467DE510B5040007D140F212
:102D90005162AFF20C51AFF2FC4002F079FAA06B35
:102DA00070E56D4A002102EBC1035B68834206D1E6
:102DB000002042F8310002EBC10148607047491C15
:102DC0000829F0D3704710B5040007D140F25D62C6
:102DD000AFF24C51AFF23C5002F05AFA2046FFF7E6
:102DE000E0FF2046BDE8104001F075BEC06C7047A2
:102DF000C164704790F85000704710B5040007D1C7
:102E000040F29372AFF28051AFF2705002F040FA8C
:102E1000A06B08B1002035E5012033E510B50400B2
:102E200007D140F2BA72AFF2A051AFF2905002F067
:102E30002FFAA06BE16B884201D1012022E500202E
:102E400020E510B5444B002253F832401CB1521C0F
:102E5000082AF9D316E543F8321003EBC2014860A3
:102E600010E510B500243C4A214602EBC1035B6823
:102E7000834202D152F8314002E0491C0829F4D3C0
:102E80002046FFE470B515460E46044601F008FDE5
:102E900094F944100020491C01D184F8440094F9AD
:102EA0004510491C01D184F8450001F013FDA06BC9
:102EB00028B92A46314604F1240000F0B6FD204628
:102EC000BDE87040FFF7C8BB00220421FFF730BB0C
:102ED00070B50D46044601F0E3FCA06C08B9A06B88
:102EE00008B1002401E0A564012401F0F3FC2046B0
:102EF00070BD10B50446806C884201D1A06B08B14A
:102F00000020BFE401F0CCFC0020A06401F0E2FC52
:102F10000120B7E408B500230A4669460093FFF78D
:102F2000DCFC009808BD08B500210A4600916946FE
:102F3000FFF780FE009808BD10B5044601F0B0FC14
:102F4000A06B20B1002401F0C5FC20469AE40124C6
:102F5000F9E7000004ED00E0D00100202DE9F04188
:102F6000054601F09DFCFE4EB068401CB060306824
:102F7000FC4F10B1706930B32BE03560B0680128A8
:102F800027D1002404EB840007EB8000FFF74CFA04
:102F9000641C202CF6D3F448FFF746FAF2481430AC
:102FA000FFF742FAF0482830FFF73EFAEE483C308F
:102FB000FFF73AFAEC485030FFF736FAEA48706308
:102FC0001430B06305E03068E96AC06A884200D80E
:102FD0003560706A0121401C70626864E86A326979
:102FE00081401143316100EB800007EB8000291D17
:102FF000FFF728FA01F06EFC706900280CD03068E9
:10300000E96AC06A884207D2D8494FF08050086008
:10301000BFF34F8FBFF36F8FBDE8F0812DE9FF5FE6
:103020008346DDE90E87994616468A46900001F0F0
:10303000E7FC05001AD05C2001F0E2FC040012D08D
:1030400025630021CDE90241CDE900874B46324698
:103050005146584601F087F82046FFF77FFF0120D0
:1030600004B0BDE8F09F284601F035FD4FF0FF3079
:10307000F6E770B5044601F013FCB94D04B92C68AD
:10308000201DFFF703FA58B9E06AB64A00EB800149
:1030900052F8211021B90121814028698843286113
:1030A000A06A18B104F11800FFF7F0F9686A401C33
:1030B00068622868844208D1AB48211D3C30FFF784
:1030C000C1F96868401C686007E0A868401EA860F5
:1030D000204601F0A1F801F092F801F0FBFB6869CD
:1030E000002812D0286884420FD1286B28B140F202
:1030F00065429FA1A3A002F0CBF89C494FF08050FD
:103100000860BFF34F8FBFF36F8F70BD2DE9F041A3
:10311000934F0026386B38B1B869401CB861F86924
:1031200000B10126304677E7FD686D1CFD6011D1C6
:10313000786B006828B140F6D9128DA191A002F0F9
:10314000A7F8786BB96B7963B863386A401C38624A
:1031500001F055F8B86ADFF80C82854209D3786B24
:10316000006880B1786BC068C468606885420DD221
:10317000B8623868C06A00EB800158F82100012865
:10318000CDD90126CBE74FF0FF30F1E7201DFFF747
:103190007DF9A06A18B104F11800FFF777F9E06A29
:1031A00001213A6981401143396100EB800108EB4C
:1031B0008100211DFFF746F9E06A3968C96A884233
:1031C000CDD30126CBE72DE9F047654D00242746F6
:1031D000286B28B94FF4FD6265A16AA002F058F887
:1031E00001F05EFB286B401E2863286BF0BBA868CB
:1031F0005D4928310126C8B3DFF868918846D8F8C0
:103200000010E9B1D8F80C00C46804F11800FFF709
:103210003DF9201DFFF73AF9E06A2A6906FA00F144
:103220001143296100EB800109EB8100211DFFF7AB
:1032300009F9E06A2968C96A8842E0D3EE61DEE7ED
:103240000CB100F0DCFFAC693CB1FFF75FFF00B1EF
:10325000EE61641EF9D10020A861E86930B14349EC
:10326000012738070860BFF34F8F00E001E0BFF38C
:103270006F8F01F02FFB3846BDE8F0872DE9F04154
:10328000374E0F460446F5683068001DFFF7FEF81C
:1032900038B9306890F82C1001208840316981439A
:1032A0003161601C08D13FB13168BDE8F0412E4862
:1032B0005030091DFFF7C6B830682C44AC4244605A
:1032C000316805D2B06BBDE8F041091DFFF7C6B803
:1032D000706B091DFFF7C2F8B06A844200D2B46275
:1032E0009AE61F48016B491C016370472DE9F041C4
:1032F0000E4605004FF0000405D140F279421CA1B2
:1033000020A001F0C5FF2EB940F27A4218A11DA0FD
:1033100001F0BEFF124F386B28B140F27B4214A17E
:1033200018A001F0B5FFFFF7DCFFFA6828688119E3
:10333000904202D9884202D804E0884201D89142E2
:1033400000D9012429601CB1881A0021FFF796FFDB
:10335000FFF739FF002822D14FF08050034919E0D0
:103360004C000020100200209004002004ED00E03A
:103370002E2E5C4672656552544F535C7461736BBC
:10338000732E63004572726F723A25732C25640D9B
:103390000A0000000860BFF34F8FBFF36F8F3BE65A
:1033A00010B5040014D0FE49096B39B140F2CF4288
:1033B000AFF24401AFF2340001F06AFFFFF791FF72
:1033C00000212046FFF75AFFFFF7FDFE002807D136
:1033D000F4494FF080500860BFF34F8FBFF36F8FF9
:1033E00010BD70B5050007D140F2FB42AFF280017D
:1033F000AFF2700001F04CFFE94E3068854201D118
:10340000002070BD01F04CFA6C6901F063FA706B3A
:10341000844202D0B06B844201D1022070BDE248E8
:10342000844204D1A86A0028F7D1032070BDDE4889
:103430001438844202D00CB1012070BD042070BD4C
:1034400010B5044601F02CFA0CB9D5480468E46ABA
:1034500001F040FA204610BD10B5044601F05FFAB5
:103460005020EFF3118180F31188BFF34F8FBFF32A
:103470006F8F0CB9CA480468E06A81F3118810BDE7
:103480002DE9F04100260D460446202908D34FF4CB
:10349000B062AFF22411AFF2141001F0F9FE1F2553
:1034A00001F0FEF9BE4F04B93C68E06CA8423FD081
:1034B0003968854206D98C4207D03968C96AA94261
:1034C00002D902E08C4200D10126E16A8846884296
:1034D00000D1E562E564A069002802DBC5F12000A7
:1034E000A061B24D08EB8800616905EB8000814264
:1034F00015D1201DFEF7CAFF012120B93A6901FA52
:1035000008F082433A61E06A3A69814011433961C7
:1035100000EB800005EB8000211DFEF793FF3EB11C
:10352000A0494FF080500860BFF34F8FBFF36F8FFB
:10353000BDE8F04101F0CEB970B5994D286B10B1DE
:103540000120E86170BD0020E8612869974EB0FA5B
:1035500080F0C0F11F0000EB800456F8240038B959
:1035600040F6F622AFF2F811AFF2E81001F090FE4B
:1035700006EB840000F1080241684968416091420D
:1035800001D149684160C868286070BD70B50446C3
:1035900001F086F9824D04B92C68201DFEF776FFF4
:1035A00058B9E06A814A00EB800152F8211021B934
:1035B00001218140286988432861A06A18B104F17B
:1035C0001800FEF763FF211D7748FEF73BFF01F06F
:1035D00081F9686928B101F063F900F010FE01F08B
:1035E00079F92868844213D1686990B1286B38B1A1
:1035F00040F25762AFF28821AFF2782001F048FE26
:1036000068494FF080500860BFF34F8FBFF36F8F52
:1036100070BD6548A9680068884202D10020286012
:1036200070BDBDE8704087E770B50025040007D184
:1036300040F28162AFF2C821AFF2B82001F028FE5B
:1036400059496069884205D1A06A2839884201D069
:1036500000B90125284670BD70B504002BD0504D2F
:103660002868844231D001F01BF92046FFF7DCFFC7
:10367000E8B1201DFEF70AFFE06A01212A698140B6
:1036800011432961494900EB800001EB8000211DB5
:10369000FEF7D8FEE06A2968C96A884207D3414923
:1036A0004FF080500860BFF34F8FBFF36F8FBDE8BE
:1036B000704001F00FB940F2AB62AFF24C31AFF2A3
:1036C0003C30BDE8704001F0E3BD70BD2DE9F04134
:1036D0000026040007D140F2E262AFF26C31AFF293
:1036E0005C3001F0D5FD01F01AF95020EFF311859F
:1036F00080F31188BFF34F8FBFF36F8F2046FFF722
:1037000093FFF0B1264F386B20B1274804F1180120
:10371000283814E0E06A3968C96A884200D3012673
:10372000201DFEF7B3FEE06A01213A698140114392
:1037300039611E4900EB800001EB8000211DFEF77E
:1037400081FE85F31188304666E4184E4FF08054B0
:10375000144D00F06BFD30680128FAD92C60BFF3DE
:103760004F8FBFF36F8FF4E71CB50D4800242C304A
:10377000CDE90040234682220DA10F48FFF74EFC01
:10378000012803D100F06DFE01281BD0401C2BD175
:1037900040F28472AFF22841AFF2184002B00DE05F
:1037A0004C00002004ED00E0E004002010020020A6
:1037B00049444C45000000004B370008BDE810406C
:1037C00001F066BD502080F31188BFF34F8FBFF327
:1037D0006F8FFA484FF0FF31816201214161C4606F
:1037E000BDE81C4001F01AB81CBD502080F31188C0
:1037F000BFF34F8FBFF36F8FF0490020486101F096
:1038000043B8EE48C068704710B501F088F8EB483F
:10381000C06810BDE9488068704710B510B1044613
:103820001CB10AE0E5480468FAE740F68C02AFF202
:10383000C041AFF2B04001F02BFD04F1340010BDE7
:103840002DE9F0471E4691460C4607000ED005466E
:1038500005F13400C4E90050E86A2061286BE0619A
:10386000686CA060207B032803D00AE0D348056879
:10387000EEE7FFF736FDA86A08B102202073FFF7D4
:10388000A2FC4FF00008E86CC4E90508052E01D041
:10389000267303E03846FFF7A4FD2073B9F1000F4B
:1038A0000AD00021286B01E0401C491C0278A52A9F
:1038B000FAD088082084DFE4A4F82080DCE42DE935
:1038C000F0478146086892460C460025F8B14868E2
:1038D00001F1080640684860B04201D14068486084
:1038E000D0F80C80606842686260B24201D15168D1
:1038F0006160606805EBC50109EB8101C76853464B
:1039000001223846FFF79CFF6D1C4745EAD1284647
:10391000B2E42DE9F04717460A4606460024202562
:10392000FFF7DFFCDFF89482D8F8080082423AD330
:10393000DFF88C926D1E05EB850104EBC40009EBEA
:10394000810106EB80000122FFF7B9FF0444002D3E
:10395000F0D104EBC40006EB800002224546D8F803
:103960003410FFF7ACFF044404EBC40006EB800006
:103970000222A96BFFF7A3FF044404EBC40006EB8B
:10398000800004228F49FFF79AFF04448D4904EB1D
:10399000C40006EB800003221431FFF790FF0444BB
:1039A0000FB100203860FFF70EFC204664E470B5CC
:1039B0000D46040007D140F60632AFF24C61AFF27B
:1039C0003C6001F065FC7D48016820461831FEF737
:1039D00045FD2846BDE8704001214FE42DE9F04146
:1039E00017460E46050007D140F61732AFF2806148
:1039F000AFF2706001F04CFC704C206B38B940F6AF
:103A00001B32AFF29461AFF2846001F041FC216897
:103A100046F000408861216828461831FEF712FD03
:103A20003846BDE8F041012128E470B514460E4641
:103A3000050007D140F63132AFF2CC61AFF2BC6085
:103A400001F026FC5D48016828461831FEF7FAFCB3
:103A50000CB14FF0FF3621463046BDE870400DE412
:103A60002DE9F041C068C4683CB940F66132AFF25C
:103A70000071AFF2F06001F00BFC04F11800074692
:103A8000FEF704FD4D4D286B012660B14D483946C7
:103A90001438FEF7D7FCE06A2968C96A884212D94F
:103AA0000120EE611CE4201DFEF7F0FCE06A2A69AB
:103AB00006FA00F111432961414900EB800001EB56
:103AC0008000211DE5E700200AE470B53B4D064665
:103AD0000C46286B38B940F69932AFF26C71AFF2F0
:103AE0005C7001F0D5FB44F000403060F4683CB9F4
:103AF00040F6A132AFF28871AFF2787001F0C8FBE6
:103B00003046FEF7C3FC201DFEF7C0FCE06A01262C
:103B10002A6906FA00F111432961294900EB800066
:103B200001EB8000211DFEF78DFCE06A2968C96A5F
:103B3000884202D90120EE6170BD002070BD10B531
:103B4000040007D140F6C132AFF2DC71AFF2CC70A5
:103B500001F09EFB1948016A2160C068606010BDD9
:103B600070B50D46040007D140F6CB32AFF6000128
:103B7000AFF2F07001F08CFB3DB940F6CC32AFF6FD
:103B80001001AFF6000001F083FB00F089FE0B4A44
:103B9000D06829684B1C0FD02368126A934202D068
:103BA0006268824210D96268801A88420CD2081A70
:103BB00028602046FFF7C3FF002406E04C000020E9
:103BC00010020020CC040020012400F083FE2046D7
:103BD00070BDFF490120C8617047002800D0806C8B
:103BE0007047002800D081647047F948006870472A
:103BF000F748416919B1006B18B1002070470120E6
:103C000070470220704770B5040039D0F04DE06A6B
:103C10002968C96A884233D2A069002804DB286871
:103C2000C06AC0F12000A061E06AEA4E00EB8000AB
:103C3000616906EB800081421FD1201DFEF726FC42
:103C4000012150B9E06A00EB800256F8222022B927
:103C50002A6901FA00F082432A612868C06AE0629A
:103C60002A6981401143296100EB800006EB800046
:103C7000211DBDE87040FEF7E5BB2868C06AE06220
:103C800070BD70B504004FF0000640D0D04D2868DC
:103C9000844207D040F6C762AFF62C11AFF61C1075
:103CA00001F0F6FA206D38B940F6C962AFF640115E
:103CB000AFF6301001F0ECFA206D401E2065E26C8A
:103CC000E16A914223D010BB201DFEF7DFFBC14902
:103CD000012250B9E06A00EB800351F8233023B988
:103CE0002B6902FA00F083432B61E06CE062C0F1C3
:103CF0002000A061E06A2B6982401A432A6100EB30
:103D0000800001EB8000211DFEF79CFB0126304660
:103D100070BD2DE9FF41002705460770AC4881685A
:103D20000291806800EBC000800000F069FE060090
:103D30004BD000220299FFF7ECFDCDE9020738468F
:103D40003AE000EBC00006EB8001087B01280FD0B1
:103D500002280FD003280FD004280FD00024496870
:103D6000284600F05EFF284600F054FF202109E0BD
:103D70005224F4E74224F2E75324F0E74424EEE728
:103D80002954401C0F28FBD32F540544039800EB03
:103D9000C00006EB80008268018CCDE90012036947
:103DA00022468DA1284601F083FA284600F032FF12
:103DB00005440398401C039002998842C1D304B083
:103DC0003046BDE8F04100F086BEBDE8FF81804985
:103DD00008680A688069D26A0968C2F120028A61AB
:103DE00070477B49086818B10868026D521C02656B
:103DF0000868704770B50C46064600F051FD744DDA
:103E00002868406D80B92968012081F858005CB1AC
:103E100001212046FFF732FA73494FF080500860C5
:103E2000BFF34F8FBFF36F8F00F054FD00F038FDEC
:103E30002868446D002034B116B12968486502E055
:103E40002A68611E5165296881F8580000F042FD1A
:103E5000204670BD2DE9F0411E46154688460746AE
:103E600000F01EFD5A4C206890F85800022814D02B
:103E70002068416DB94341652168012081F85800EF
:103E80005EB101213046FFF7F9F957494FF08050F4
:103E90000860BFF34F8FBFF36F8F00F01BFD00F082
:103EA000FFFC15B12068406D2860206890F858002C
:103EB00001280DD02068416D21EA080141650125E6
:103EC0002168002081F8580000F004FD28463BE4FA
:103ED0000025F5E72DE9F0411F4690460D46040008
:103EE0004FF0010607D141F2FD02AFF67C31AFF68B
:103EF0006C3001F0CDF900F0D3FC0FB1606D38608B
:103F000094F85800022184F85810B8F1050F0ED229
:103F1000DFE808F00D03060C0A00616D294301E09B
:103F2000616D491C616502E0022803D065650128C6
:103F300002D02AE0002628E0201DFEF7A7FA244D33
:103F4000E06A01212A69814011432961214900EB7E
:103F5000800001EB8000211DFEF774FAA06A38B1E1
:103F600041F23512AFF6F831AFF6E83001F090F9D2
:103F7000E06A2968C96A884207D91B494FF0805016
:103F80000860BFF34F8FBFF36F8F00F0A3FC304684
:103F900088E52DE9F0471F46DDF8209092460D4652
:103FA00004004FF0010807D141F26812AFF640411A
:103FB000AFF6304001F06CF900F0B1FC5020EFF3A7
:103FC000118680F31188BFF34F8FBFF36F8F0DE021
:103FD0004C000020100200200925630925750925E1
:103FE000750925750D0A000004ED00E00FB1606D44
:103FF000386094F85800022184F85810BAF1050F7F
:104000000ED2DFE80AF00D03060C0A00616D2943A9
:1040100001E0616D491C616502E0022803D065651D
:10402000012803D031E04FF000082EE0A06A38B13B
:1040300041F2AF12AFF6C841AFF6B84001F028F92F
:104040008D4D286B012778B104F118018B48FEF7DC
:10405000F9F9E06A2968C96A884216D9B9F1000FEE
:1040600012D0C9F8007010E0201DFEF70FFAE06AC8
:104070002A6907FA00F11143296100EB80018048A9
:1040800000EB8100211DE2E7EF6186F311884046D5
:1040900011E42DE9F0418846040007D141F2E31212
:1040A000AFF63451AFF6245001F0F2F800F037FCCF
:1040B0005020EFF3118780F31188BFF34F8FBFF3C8
:1040C0006F8F94F85800022184F85810616D491CD4
:1040D000616501282ED1A06A38B141F20922AFF6FC
:1040E0007051AFF6605001F0D3F8634D286B012694
:1040F00078B104F118016148FEF7A4F9E06A296873
:10410000C96A884216D9B8F1000F12D0C8F8006009
:1041100010E0201DFEF7BAF9E06A2A6906FA00F1FC
:1041200011432961564900EB800001EB8000211DFD
:10413000E2E7EE6187F31188B4E410B558B10446A4
:1041400000F0AEFB94F85800022807D0002400F0DD
:10415000C1FB204610BD48480468F1E7002084F800
:1041600058000124F3E72DE9F0470E46DDE9098404
:104170001746824691009946089DA522206B00F0C3
:1041800037FD6FF00301206B01EB8701084420F03D
:104190000707780705D040F22B323AA13EA001F084
:1041A00077F800202218315C82F83410315C11B1AC
:1041B000401C1028F6D3002684F84360202D00D33D
:1041C0001F25E562C4E91356201DFEF738F904F1F6
:1041D0001800FEF734F92461C5F120006462A06183
:1041E000666584F858604A465146384600F0F9FA48
:1041F0002060B8F1000F01D0C8F8004048E71E4821
:10420000416B096829B1416BC968C9684968816215
:1042100070474FF0FF31FAE710B50446006B00F02D
:104220005AFC2046BDE8104000F055BC70B5134E56
:10423000114D14361CE0FFF754F8306820B100240B
:10424000FEF7C1FFA4B901E00124F9E700F028FB63
:10425000F068C468201DFEF719F9A868401EA86020
:104260006868401E686000F035FB2046FFF7D4FF09
:1042700068680028DFD170BD4C000020B804002021
:10428000100200202E2E5C4672656552544F535C1E
:104290007461736B732E63004572726F723A25738B
:1042A0002C25640D0A00000070B500244160F74D14
:1042B0000061914206D8D11A8269914206D2011D4D
:1042C000286907E09A4203D2994201D3012403E00E
:1042D000011DE868FEF7C2F8204670BD2DE9FF47D2
:1042E0009946DDF830A090460D4606004FF00007D5
:1042F00005D14FF4D372E6A1EBA000F0C9FFE34C67
:10430000206880B1CDE900580296062D11DAFFF73A
:104310006FFC02284FF0000309D000226946206894
:10432000FEF7D6F9074604B03846BDE8F087524696
:10433000F4E700234A466946FEF7C2FBF2E770B590
:1043400086B0D24E53E00198002806DADDE9030179
:10435000029A90470198002849DB039C606910B1DC
:10436000201DFEF793F805A800F04DF905460198C9
:104370000A283CD2DFE800F00505053B2738050593
:104380003B270298A169034601442A462046FFF7CD
:104390008BFF00282BD0616A20468847E0690128FE
:1043A00025D1002000900298A169002342181946E7
:1043B0002046FFF793FFD0B940F22132B4A1BAA052
:1043C00000F066FF13E00298A06128B94FF44E7226
:1043D000AFA1B5A000F05CFFA0692B4641191A46B9
:1043E0002046FFF761FF02E0204600F074FB002347
:1043F0001A4601A93068FEF770FA0028A3D106B06A
:1044000070BDA24CE068016839B1002139B10020CB
:1044100000F00BF9FFF793FFF4E70121F6E7C0681E
:104420000068F5E710B500F03BFA984C2068A0B999
:10443000A148FDF7F9FFA0481430FDF7F5FF9E48AD
:10444000E06014302061002210210520FEF770F892
:10445000206010B199A1FEF7F4FCBDE8104000F017
:1044600039BA1CB50024FFF7DDFF8848006868B141
:1044700086491F20091DCDE9000100234FF48272F7
:1044800090A19248FEF7CAFD040005D140F2331214
:104490007FA185A000F0FCFE20461CBD2DE9F04761
:1044A0000746994616460D462C20DDF820A000F060
:1044B000A7FA040014D0B8464F46D1462DB94FF4A0
:1044C000C67283A188A000F0E3FEFFF7ABFF04F102
:1044D0001801C4F8008081E8E002201DFDF7AFFF5D
:1044E000204622E710B5694C606828B94FF4E8729D
:1044F00067A16DA000F0CCFE606810BD10B504008F
:1045000005D140F2D91262A167A000F0C1FEA069F6
:1045100010BD10B5040005D140F2E3125CA162A009
:1045200000F0B6FE606810BD10B5040005D140F281
:10453000ED1257A15CA000F0ABFE206810BD10B5D5
:10454000040005D140F2DA3251A157A000F0A0FEDC
:1045500000F0A6F9606908B1012400E0002400F031
:10456000B9F9204610BD10B5040005D140F2EF3274
:1045700047A14DA000F08CFE00F092F9246A00F0F3
:10458000A9F9204610BD70B50D46040005D140F2D2
:10459000FF323FA144A000F07BFE00F081F92562CC
:1045A000BDE8704000F096B97FB56FF0010401AE30
:1045B000009486E8070035481D4600232A466946D0
:1045C0000068FEF77DFA04B070BD2DE9FF412F4C65
:1045D00007469846206815460E4628B940F22B42F9
:1045E0002BA131A000F054FE4FF0FF30CDE90007C1
:1045F000CDE902650023424669462068FEF768F867
:1046000004B0BDE8F08170B50546FFF7FAF81F4E1B
:104610000446B068844203D200F070F8012000E044
:10462000002028602046B46070BDF8B50D460646EF
:10463000FEF757FE6846FFF7E6FF0446009810B104
:10464000FEF7C1FDF8BD1148ADB101690968D9B1E6
:104650000025311B2A460068FEF714FCFEF7B3FD67
:104660000028EFD124494FF080500860BFF34F8FEE
:10467000BFF36F8FF8BDA642EBD8FEF7A4FD21462D
:10468000304600F06EF8F8BD0125E2E78800002012
:104690002E2E5C4672656552544F535C74696D658D
:1046A00072732E63000000004572726F723A2573B8
:1046B0002C25640D0A000000F4040020546D725192
:1046C00000000000546D722053766300034400081C
:1046D0002E2E5C4672656552544F535C74696D654D
:1046E00072732E63000000004572726F723A257378
:1046F0002C25640D0A00000004ED00E0F8B52F4EF3
:1047000027E0C068C4680568201DFDF7BFFE616A28
:1047100020468847E06901281BD1A0692844A842A7
:1047200006D924616060211DF068FDF797FE10E056
:1047300000200346014600902A462046FFF7CEFDA2
:1047400038B940F29232AFF27801AFF2640000F073
:104750009FFDF06801680029D3D13169C6E90310D3
:10476000F8BDF8B5054615480E46C068C068C4686F
:10477000201DFDF78BFEE069012818D1A0692B46AA
:10478000411932462046FFF78FFD80B100200346D5
:10479000014600902A462046FFF7A0FD38B94FF4A5
:1047A0000272AFF2D401AFF2C00000F071FD616A95
:1047B00001B02046BDE8F040084700008800002016
:1047C00069484068401C04D0F42268A172A000F03F
:1047D0005FFD502080F31188BFF34F8FBFF36F8FC1
:1047E000FEE710B5031F4FF080741C601B1F21F003
:1047F00001011960191F6C4B0B60143940380A60B5
:1048000010BD6A484FF47A710068B0FBF1F14FF0C7
:10481000E020491E41610721016170471CB56449D0
:1048200008780190FF20087008788DF800009DF846
:1048300000004D4A00F0500010700720906007E023
:104840009068401E90609DF8000040008DF80000C8
:104850009DF800000006F3D4107A000200F4E06036
:104860009060019808705348016841F4700101603C
:10487000016841F070410160FFF7C3FF0020506004
:10488000FBF772FC00201CBD37484068B0F57A7F0A
:1048900005D04FF4B57235A13FA000F0F9BC7047C8
:1048A000502080F31188BFF34F8FBFF36F8F2E49D5
:1048B0004868401C486001280BD13E481C380068FD
:1048C00010F0FF0F05D04FF4BD7228A132A000F008
:1048D000DFBC704710B5244C606828B940F28112E3
:1048E00022A12DA000F0D4FC6068401E606001D1C0
:1048F00080F3118810BD10B5502080F31188BFF3EC
:104900004F8FBFF36F8FFEF701FC20B129494FF0A5
:1049100080501C390860002080F3118810BD10B54C
:10492000FBF758FC104C10280CD300F1E02090F855
:10493000F0032178884205D24FF42A720BA116A009
:1049400000F0A6FC1B4814380068A16800F4E06081
:10495000884207D9BDE810404FF42E7203A10EA083
:1049600000F096BC10BD00009C0000202E2E5C467E
:1049700072656552544F535C706F727461626C65FE
:104980005C525644535C41524D5F434D335C706FF3
:1049900072742E63000000004572726F723A2573C4
:1049A0002C25640D0A000000C14700080C000020FF
:1049B00000E400E020ED00E030B5744900E011466D
:1049C0000A688242FBD34B685C18844203D140687A
:1049D00018444860084643681C18944209D16B4C3F
:1049E000103C2468A24209D052681A4442600A6806
:1049F00012680260814200D0086030BD0460F9E7AF
:104A00002DE9F04105460026FEF76BFC5F4F103F95
:104A1000386808B900F098F8F86805424ED1002DC2
:104A20004CD0083568070BD005F00700C0F108002E
:104A30000544680704D0BF2255A15FA000F028FC00
:104A4000002D3BD07868854238D850490846046824
:104A500001E0214604466068A84202D2206800288E
:104A6000F7D13868B846844228D00E6820680860BC
:104A700060680836401B10280ED96719780704D0E3
:104A8000EC2243A14CA000F003FC6068401B78605E
:104A900038466560FFF790FF6168D8F80400424629
:104AA000401AC8F80400D8F80830984200D2906044
:104AB000D8F80C0001430020C4E90001FEF783FB95
:104AC000700705D04FF4967231A13BA000F0E0FBD7
:104AD0003046BDE8F08170B500282BD02B4DA0F1F9
:104AE0000804103D6068E968084205D14FF4A072DF
:104AF00027A131A000F0CCFB206828B140F2411280
:104B000023A12DA000F0C4FB6068E968084211D021
:104B10002268002A0ED188436060FEF7E2FB6068DD
:104B20006968084468602046FFF746FFBDE87040AA
:104B3000FEF749BB70BD15481038406870471348F0
:104B400010388068704770471F484FF4A0414207F3
:104B500006D0C01D1C4920F00700411AC1F5A04134
:104B60000A4A00230144C2E900030839103A21F03F
:104B7000070111604B600B600B1AC0E900139360D2
:104B80004FF000405360D06070470000B800002034
:104B90002E2E5C4672656552544F535C706F727472
:104BA00061626C655C4D656D4D616E675C686561E9
:104BB000705F342E630000004572726F723A257385
:104BC0002C25640D0A0000001C05002040EA0103AA
:104BD0009B0703D009E008C9121F08C0042AFAD2B3
:104BE00003E011F8013B00F8013B521EF9D2704777
:104BF000D2B201E000F8012B491EFBD2704700221F
:104C0000F6E710B513460A4604461946FFF7F0FFCB
:104C1000204610BD421C10F8011B0029FBD1801A50
:104C20007047034611F8012B00F8012B002AF9D137
:104C30001846704780EA010210B502F000434000B8
:104C400022D04A001FD0010E01EB1261C0F35600C2
:104C5000C2F3560240F4000042F40002A0FB02201E
:104C600000047F39140400D0401C50EA124001D4E3
:104C70004000491EC2B20C0604EBD010401C400894
:104C8000802A02D003E0002010BD20F0010000299E
:104C900000DA0020184310BD420005D0C0F3C7520F
:104CA0005242914201DC0020704700EBC150704736
:104CB00096230022114600F064B820F00040C10D98
:104CC000C0F3160040F400007F2901DA002070478D
:104CD000962903DCC1F19601C84070479639884097
:104CE000704730B50B46014600202022012409E020
:104CF00021FA02F59D4205D303FA02F5491B04FA95
:104D000002F52844151EA2F10102F1DC30BD2DE9A7
:104D1000F05F0546002092469B468846064681463F
:104D200040241BE0284641464746224600F031FA1F
:104D300053465A46C01A914110D31146184622468E
:104D400000F018FA2D1A67EB01084F4622460120A1
:104D5000002100F00FFA17EB00094E41201EA4F1CC
:104D60000104DFDC484631462A464346BDE8F09F51
:104D70000029A8BF7047401C490008BF20F001006F
:104D8000704710B4B0FA80FC00FA0CF050EA01044D
:104D900004BF10BC704749B1CCF1200421FA04F4DF
:104DA00011FA0CF118BF012121430843A3EB0C01B8
:104DB000CB1D4FEA00614FEA102042BF002010BC1B
:104DC000704700EBC35010440029A4BF10BC7047CB
:104DD000401C490008BF20F0010010BC70472DE9BD
:104DE000FE4F804681EA0300C00F0C46009021F080
:104DF000004123F00045B8EB0200A94105D240462E
:104E0000214690461C460B46024623F000401043C4
:104E100047D0270DC7F30A00C3F30A510290401A86
:104E2000019040286BDAC3F3130040F4801B009814
:104E3000924620B10023D2EB030A63EB0B0B0198DF
:104E40005946C0F14002504600F094F906460D461E
:104E500050465946019A00F0ACF910EB0800614148
:104E6000002487EA115284EAE7731A4340D0009A7B
:104E700062B3019A012A4FEA075215DC001B61EB6D
:104E800002014FF0004202EA0752CDE90042001C45
:104E900041F5801132462B4600F0ACF903B0BDE875
:104EA000F08F40462146F9E7001B61EB0201001C30
:104EB00041F5801300185B412018A2F5001747EB5D
:104EC000030140EAD570B6196D4111E06D084FEA53
:104ED000360645EAC0754FEA0752001B61EB020136
:104EE000001C41F5801149084FEA3000001951417A
:104EF00032462B4603B0BDE8F04F00F06CB9009885
:104F0000012240000023D0EB020263EBE073009823
:104F100021464FEAE074B8EB000061EB0401E9E7D9
:104F200083F000435BE781F0004158E72DE9FE4F35
:104F300081EA030404F0004421F0004100944FF0A2
:104F4000000B23F0004350EA01045ED052EA030450
:104F50005BD0C3F30A54C1F30A552C44A4F2F334D2
:104F60000194A0FB0254C1F3130141F48011C3F377
:104F7000130343F4801301FB024400FB034E840A35
:104F8000970A44EA815447EA8357A4FB07680295CD
:104F90008D0A05FB07854FEA932C04FB0C5427056B
:104FA000029D4FEA065847EA1637B5EB08056EEB47
:104FB000070C870E920E47EA811742EA8312A7FB7D
:104FC0000201B6EB0B0164EB00042B0D43EA0C333A
:104FD0005E1844EB1C50DA465146E7FB0201C5F36C
:104FE00013044FEA0B3343EA14534FEA0432019C93
:104FF00043EA0603A4F10C040294009CCDE900B43A
:1050000000F0F8F803B0BDE8F08F00200146F9E7A2
:105010002DE9F04D81EA030404F0004B21F0004536
:1050200014464FF0000A23F0004150EA050220D058
:1050300054EA01021DD0C5F30A570246C5F3130313
:10504000C1F31300C1F30A5640F4801543F48013F2
:10505000A7EB0608101BD64608F2FD3873EB0500D7
:1050600002D308F1010801E092185B41B8F1000F8A
:1050700003DA00200146BDE8F08D00204FF48011D6
:10508000064684460EE0171B73EB050705D3121B7B
:1050900063EB050306434CEA010C49084FEA300074
:1050A00092185B4150EA0107EDD152EA030012D099
:1050B00082EA040083EA0501084305D0101BAB41D6
:1050C00006D20122002306E000224FF0004302E056
:1050D0006FF0010253101AEB06004CEB085110EB75
:1050E0000A0041EB0B01BDE8F04D00F074B8C1F3CC
:1050F0000A52C1F3130140F2FF3341F480119A4286
:1051000002DA00200146704740F233439A42A2F28D
:10511000334202DC524200F03CB800F02BB80000F1
:1051200030B5041E71F1000404DB4FF0004440422E
:1051300064EB0101141E73F1000405DB1C464FF003
:105140000043524263EB0403994208BF904230BDD2
:10515000064C074D06E0E06840F0010394E80700C4
:1051600098471034AC42F6D3FAF7E6FFB45B000878
:10517000D45B0008202A04DB203A00FA02F1002068
:1051800070479140C2F1200320FA03F31943904085
:105190007047202A04DB203A21FA02F000217047F0
:1051A00021FA02F3D040C2F120029140084319468F
:1051B0007047202A06DBCB17203A41FA02F043EA77
:1051C000E07306E041FA02F3D040C2F120029140C0
:1051D00008431946704710B5141E73F1000408DA2D
:1051E000401C41F1000192185B411A4301D120F0AB
:1051F000010010BD2DE9F04D92469B4611B1B1FA68
:1052000081F202E0B0FA80F220329046FFF7B2FF5E
:1052100004460F4640EA0A0041EA0B0153465A464B
:10522000084313D0114653EA010019D0C8F14002D7
:105230005046FFF7AEFF05460E46504659464246D9
:10524000FFF798FF084305D0012004E020463946C7
:10525000BDE8F08D0020054346EAE0762C43374355
:105260000A986305E40AA0EB08000022FD0A44EA5C
:1052700047540A3002D500200146E9E7010510191C
:105280006941DDE9084500196941BDE8F04DA2E733
:105290000FB4054B10B503A9044A029800F0EEF8CC
:1052A00010BC5DF814FB0000570900083400002012
:1052B0000FB4084B10B504A902AA039800F0DEF859
:1052C000044602A9002000F070FC204610BC5DF8E6
:1052D00014FB0000AB5B000802E008C8121F08C105
:1052E000002AFAD170477047002001E001C1121F67
:1052F000002AFBD1704700002DE9FF5F82B000213A
:10530000DDE90430020DDDF840B0034318D044F667
:105310001050A2F2FF3242431514119801281FD0F9
:10532000A5EB0B00401C5FEA000A4FF000064E4F51
:10533000DFF83891B046504615D5CAF1000413E0A5
:10534000119801244AA3012801D16FEA0B010298A8
:10535000119AC0E90031C0E9024206B0BDE8F09FF1
:10536000CBF10000DFE704460021404A491842EB38
:105370000450CDE9001012E0E00707D032463B466A
:1053800040464946FFF7D2FD8046894632463B46B5
:1053900010461946FFF7CAFD06460F466410002C5A
:1053A000EAD1DDE90401DDE90023BAF1000F06DAF4
:1053B000FFF7BCFD42464B46FFF7B8FD05E0FFF79F
:1053C00027FE42464B46FFF723FE04460E460022C8
:1053D000284BFFF7A5FE03D84FF0FF30014607E04A
:1053E0000022254B20463146FFF7F9FCFFF77FFEF0
:1053F000102409E0002C0ADB0A220023FFF787FCB7
:10540000039B30321A55641E50EA0102F2D1641C2B
:10541000039AC4F111031444119A012A03D0012202
:1054200008430DD10AE0084304D000204FF0110BCF
:10543000119072E7A3EB0B056D1E0DE05B4504DDDB
:105440004FF0000205F1010504E003DA4FF000021D
:10545000A5F10105002AECD002981199C0E90231AA
:10546000C0E9004579E70000000014400000F03F6B
:10547000300000000000F0430000E03F2DE9FF4F46
:1054800095B09B468946064600250FE2252877D130
:1054900000242746F84A0121059400E0044316F849
:1054A000013F203B01FA03F01042F7D130782A285F
:1054B00011D06FF02F033078A0F13002092A16D8EE
:1054C000059A44F0020402EB820203EB420210440C
:1054D000761C0590EFE759F8042B0592002A03DAB1
:1054E000504244F40054059044F00204761C307895
:1054F0002E2816D116F8010F44F004042A280DD0E6
:105500006FF02F023078A0F13003092B09D807EB98
:10551000870302EB4303C718761CF3E759F8047BB3
:10552000761C30786C280FD006DC4C2817D0682801
:105530000DD06A2814D104E0742810D07A280FD135
:105540000DE044F400140AE044F4801401E044F453
:1055500040147278824202D104F58014761C761CC5
:10556000307866280BD013DC582877D009DC002867
:1055700075D04528F6D04628F4D047281AD19DE1A9
:1055800018E0632835D0642879D0652812D195E1D8
:10559000702873D008DC6728F1D069286FD06E2896
:1055A0000DD06F2806D1B5E073282CD0752875D0A2
:1055B000782874D05A46179990476D1C75E1C4F34A
:1055C0000250022809D003280DD0D9F80010042871
:1055D0000DD00D6009F1040967E1D9F80010EA1750
:1055E000C1E90052F6E7D9F800100D80F2E70D701E
:1055F000F0E719F8041B8DF8001000208DF8010069
:10560000EA46012003E059F804AB4FF0FF30610790
:105610004FF0000102D40DE008F101018846B942C3
:105620000FDA8045F8DB1AF808100029F4D108E0F9
:1056300008F1010188468142FADB1AF808100029B6
:10564000F6D105985B46A0EB080721463846179A25
:1056500000F094FA284400EB080507E04DE029E14A
:105660000DE01AF8010B5A4617999047B8F1010856
:10567000F7D25B4621463846179A13E142E00A22E8
:105680000092C4F302524FF0000A022A08D059F8DF
:1056900004CB032A4FEAEC710AD00DE029E02AE09E
:1056A00009F1070121F00702F2E802C1914609E081
:1056B0000FFA8CFC4FEAEC71042A03D14FFA8CFCF0
:1056C0004FEAEC71002907DA0A460021DCF1000CF0
:1056D00061EB02012D2202E0220504D52B228DF878
:1056E0000420012203E0E20701D02022F7E79046E0
:1056F00059E00A2102E010220DE010214FF0000ACB
:1057000000910BE010224FF0000A44F00404082737
:10571000009203E008224FF0000A0092C4F3025204
:10572000022A05D059F804CB0021032A08D009E049
:1057300009F1070121F00702F2E802C1914605E0F4
:105740001FFA8CFC042A01D10CF0FF0C4FF000086A
:10575000220728D5702806D0009B83F0100353EA57
:105760000A0305D00EE040228DF80420012208E053
:105770005CEA010206D030228DF804208DF8050085
:1057800002229046009B83F0080353EA0A030AD1E1
:105790005CEA010201D1620705D530228DF80420B0
:1057A0004FF001087F1E582804D034A003900EA8A3
:1057B00002900DE036A0F9E753466046009AFFF7E5
:1057C000A6FA84460398825C0298401E02900270FA
:1057D0005CEA0100F0D1029806A9081A00F1200A3B
:1057E000600702D524F4803400E00127574502DD2C
:1057F000A7EB0A0000E0002000EB0A0100900598EA
:105800004144401A0590E00306D45B462146179AAE
:10581000059800F0B3F90544002706E001A85A46B0
:10582000C05D179990476D1C7F1C4745F6DBE00370
:105830000CD55B462146179A059800F09FF9054460
:1058400004E030205A46179990476D1C0099481E75
:1058500000900029F5DC08E0029802995A46007889
:10586000491C0291179990476D1CBAF10001AAF1E9
:10587000010AF1DC65E10000092801003031323312
:10588000343536373839616263646566000000007C
:105890003031323334353637383941424344454666
:1058A0000000000000F058F90544761C307800280C
:1058B0007FF4ECAD19B02846BDE8F08F620700D444
:1058C000062709F1070222F0070CFCE80223E14653
:1058D00003F000485FEA080C02D00FF2702C0DE0D4
:1058E0005FEA045C02D50FF2682C07E05FEAC47C33
:1058F00002D00FF2602C01E0AFF2700C4FF0FF38D5
:1059000023F00043CDF850C065280CD006DC4528B4
:1059100009D046281DD047283DD13DE0662818D043
:1059200067287ED138E00021112F01DB112000E033
:10593000781CCDE9000106A90EA8FFF7DDFCDDE922
:105940000F010E9A03910021009207F1010A0491C0
:105950004DE04FF000400097CDE9011006A90EA8D8
:10596000FFF7CAFCDDE90F0203920E9B119900229A
:10597000DDF80CA00093049211B9791C00EB010A28
:10598000B7EB0A0004D4C0F1FF3007F1010A04901C
:10599000AAEB0700019044E0012F00DA0127002163
:1059A000112F01DD112000E03846CDE9000106A9E4
:1059B0000EA8FFF7A1FCDDE90F010E9A039100216B
:1059C00004910092BA4621070CD40399514500DA9C
:1059D0008A46BAF1010F05DD009AAAF10101515C76
:1059E000302908D0B84202DA10F1040F06DA01219A
:1059F000CDE9011015E0AAF10101E9E7002805DC75
:105A0000049901440491AAEB000102E0411C5145B4
:105A100000DD8A460499401A401C01904FF0004076
:105A20000290200704D40198504501DBCDF8048092
:105A300000208DF84F0002980DF14F07B0F1004F94
:105A400025D02B200E9002984FF0020800280CDA87
:105A5000404202902D200E9007E00A210298FFF7A5
:105A600040F93031029007F8011DB8F10001A8F1AA
:105A70000108F2DC02980028EFD1791E0E98087018
:105A8000307800F0200040F0450007F8020D12A821
:105A9000C01B00F107081498007800B1012000EB4A
:105AA0000A01019801EBE07105984144401A401E3B
:105AB0000590E00306D45B462146179A059800F04E
:105AC0005DF805441498007818B15A461799904724
:105AD0006D1CE00324D55B462146179A059800F01B
